{
  "contractName": "Miragrow",
  "abi": [
    {
      "inputs": [],
      "stateMutability": "nonpayable",
      "type": "constructor"
    },
    {
      "anonymous": false,
      "inputs": [
        {
          "indexed": true,
          "internalType": "address",
          "name": "owner",
          "type": "address"
        },
        {
          "indexed": true,
          "internalType": "address",
          "name": "spender",
          "type": "address"
        },
        {
          "indexed": false,
          "internalType": "uint256",
          "name": "value",
          "type": "uint256"
        }
      ],
      "name": "Approval",
      "type": "event"
    },
    {
      "anonymous": false,
      "inputs": [
        {
          "indexed": true,
          "internalType": "address",
          "name": "previousOwner",
          "type": "address"
        },
        {
          "indexed": true,
          "internalType": "address",
          "name": "newOwner",
          "type": "address"
        }
      ],
      "name": "OwnershipTransferred",
      "type": "event"
    },
    {
      "anonymous": false,
      "inputs": [
        {
          "indexed": false,
          "internalType": "uint256",
          "name": "amountIn",
          "type": "uint256"
        },
        {
          "indexed": false,
          "internalType": "address[]",
          "name": "path",
          "type": "address[]"
        }
      ],
      "name": "SwapTokensForETH",
      "type": "event"
    },
    {
      "anonymous": false,
      "inputs": [
        {
          "indexed": true,
          "internalType": "address",
          "name": "from",
          "type": "address"
        },
        {
          "indexed": true,
          "internalType": "address",
          "name": "to",
          "type": "address"
        },
        {
          "indexed": false,
          "internalType": "uint256",
          "name": "value",
          "type": "uint256"
        }
      ],
      "name": "Transfer",
      "type": "event"
    },
    {
      "stateMutability": "payable",
      "type": "fallback"
    },
    {
      "inputs": [],
      "name": "MARKETING_FEE",
      "outputs": [
        {
          "internalType": "uint256",
          "name": "",
          "type": "uint256"
        }
      ],
      "stateMutability": "view",
      "type": "function"
    },
    {
      "inputs": [],
      "name": "MAX_SUPPLY",
      "outputs": [
        {
          "internalType": "uint256",
          "name": "",
          "type": "uint256"
        }
      ],
      "stateMutability": "view",
      "type": "function"
    },
    {
      "inputs": [],
      "name": "MIRACLE_POT_FEE",
      "outputs": [
        {
          "internalType": "uint256",
          "name": "",
          "type": "uint256"
        }
      ],
      "stateMutability": "view",
      "type": "function"
    },
    {
      "inputs": [],
      "name": "TRADING_FEE",
      "outputs": [
        {
          "internalType": "uint256",
          "name": "",
          "type": "uint256"
        }
      ],
      "stateMutability": "view",
      "type": "function"
    },
    {
      "inputs": [
        {
          "internalType": "uint256",
          "name": "",
          "type": "uint256"
        }
      ],
      "name": "_lastBuyers",
      "outputs": [
        {
          "internalType": "address",
          "name": "addr",
          "type": "address"
        },
        {
          "internalType": "uint256",
          "name": "amount",
          "type": "uint256"
        }
      ],
      "stateMutability": "view",
      "type": "function"
    },
    {
      "inputs": [],
      "name": "_lotteryTime",
      "outputs": [
        {
          "internalType": "uint256",
          "name": "",
          "type": "uint256"
        }
      ],
      "stateMutability": "view",
      "type": "function"
    },
    {
      "inputs": [],
      "name": "_marketingWallet",
      "outputs": [
        {
          "internalType": "address",
          "name": "",
          "type": "address"
        }
      ],
      "stateMutability": "view",
      "type": "function"
    },
    {
      "inputs": [],
      "name": "_rebasedTime",
      "outputs": [
        {
          "internalType": "uint256",
          "name": "",
          "type": "uint256"
        }
      ],
      "stateMutability": "view",
      "type": "function"
    },
    {
      "inputs": [],
      "name": "decimals",
      "outputs": [
        {
          "internalType": "uint8",
          "name": "",
          "type": "uint8"
        }
      ],
      "stateMutability": "view",
      "type": "function"
    },
    {
      "inputs": [],
      "name": "dexRouter",
      "outputs": [
        {
          "internalType": "contract IUniswapV2Router02",
          "name": "",
          "type": "address"
        }
      ],
      "stateMutability": "view",
      "type": "function"
    },
    {
      "inputs": [],
      "name": "geUnlockTime",
      "outputs": [
        {
          "internalType": "uint256",
          "name": "",
          "type": "uint256"
        }
      ],
      "stateMutability": "view",
      "type": "function"
    },
    {
      "inputs": [
        {
          "internalType": "uint256",
          "name": "time",
          "type": "uint256"
        }
      ],
      "name": "lock",
      "outputs": [],
      "stateMutability": "nonpayable",
      "type": "function"
    },
    {
      "inputs": [],
      "name": "lotteryWinner",
      "outputs": [
        {
          "internalType": "address",
          "name": "",
          "type": "address"
        }
      ],
      "stateMutability": "view",
      "type": "function"
    },
    {
      "inputs": [],
      "name": "lpPair",
      "outputs": [
        {
          "internalType": "address",
          "name": "",
          "type": "address"
        }
      ],
      "stateMutability": "view",
      "type": "function"
    },
    {
      "inputs": [],
      "name": "name",
      "outputs": [
        {
          "internalType": "string",
          "name": "",
          "type": "string"
        }
      ],
      "stateMutability": "view",
      "type": "function"
    },
    {
      "inputs": [],
      "name": "owner",
      "outputs": [
        {
          "internalType": "address",
          "name": "",
          "type": "address"
        }
      ],
      "stateMutability": "view",
      "type": "function"
    },
    {
      "inputs": [],
      "name": "renounceOwnership",
      "outputs": [],
      "stateMutability": "nonpayable",
      "type": "function"
    },
    {
      "inputs": [],
      "name": "symbol",
      "outputs": [
        {
          "internalType": "string",
          "name": "",
          "type": "string"
        }
      ],
      "stateMutability": "view",
      "type": "function"
    },
    {
      "inputs": [
        {
          "internalType": "address",
          "name": "newOwner",
          "type": "address"
        }
      ],
      "name": "transferOwnership",
      "outputs": [],
      "stateMutability": "nonpayable",
      "type": "function"
    },
    {
      "inputs": [],
      "name": "unlock",
      "outputs": [],
      "stateMutability": "nonpayable",
      "type": "function"
    },
    {
      "stateMutability": "payable",
      "type": "receive"
    },
    {
      "inputs": [],
      "name": "totalSupply",
      "outputs": [
        {
          "internalType": "uint256",
          "name": "",
          "type": "uint256"
        }
      ],
      "stateMutability": "view",
      "type": "function"
    },
    {
      "inputs": [
        {
          "internalType": "address",
          "name": "account",
          "type": "address"
        }
      ],
      "name": "balanceOf",
      "outputs": [
        {
          "internalType": "uint256",
          "name": "",
          "type": "uint256"
        }
      ],
      "stateMutability": "view",
      "type": "function"
    },
    {
      "inputs": [
        {
          "internalType": "address",
          "name": "recipient",
          "type": "address"
        },
        {
          "internalType": "uint256",
          "name": "amount",
          "type": "uint256"
        }
      ],
      "name": "transfer",
      "outputs": [
        {
          "internalType": "bool",
          "name": "",
          "type": "bool"
        }
      ],
      "stateMutability": "nonpayable",
      "type": "function"
    },
    {
      "inputs": [
        {
          "internalType": "address",
          "name": "owner",
          "type": "address"
        },
        {
          "internalType": "address",
          "name": "spender",
          "type": "address"
        }
      ],
      "name": "allowance",
      "outputs": [
        {
          "internalType": "uint256",
          "name": "",
          "type": "uint256"
        }
      ],
      "stateMutability": "view",
      "type": "function"
    },
    {
      "inputs": [
        {
          "internalType": "address",
          "name": "spender",
          "type": "address"
        },
        {
          "internalType": "uint256",
          "name": "amount",
          "type": "uint256"
        }
      ],
      "name": "approve",
      "outputs": [
        {
          "internalType": "bool",
          "name": "",
          "type": "bool"
        }
      ],
      "stateMutability": "nonpayable",
      "type": "function"
    },
    {
      "inputs": [
        {
          "internalType": "address",
          "name": "from",
          "type": "address"
        },
        {
          "internalType": "address",
          "name": "to",
          "type": "address"
        },
        {
          "internalType": "uint256",
          "name": "amount",
          "type": "uint256"
        }
      ],
      "name": "transferFrom",
      "outputs": [
        {
          "internalType": "bool",
          "name": "",
          "type": "bool"
        }
      ],
      "stateMutability": "nonpayable",
      "type": "function"
    },
    {
      "inputs": [
        {
          "internalType": "address",
          "name": "spender",
          "type": "address"
        },
        {
          "internalType": "uint256",
          "name": "addedValue",
          "type": "uint256"
        }
      ],
      "name": "increaseAllowance",
      "outputs": [
        {
          "internalType": "bool",
          "name": "",
          "type": "bool"
        }
      ],
      "stateMutability": "nonpayable",
      "type": "function"
    },
    {
      "inputs": [
        {
          "internalType": "address",
          "name": "spender",
          "type": "address"
        },
        {
          "internalType": "uint256",
          "name": "subtractedValue",
          "type": "uint256"
        }
      ],
      "name": "decreaseAllowance",
      "outputs": [
        {
          "internalType": "bool",
          "name": "",
          "type": "bool"
        }
      ],
      "stateMutability": "nonpayable",
      "type": "function"
    },
    {
      "inputs": [
        {
          "internalType": "address",
          "name": "_receiver",
          "type": "address"
        }
      ],
      "name": "clearBalance",
      "outputs": [],
      "stateMutability": "nonpayable",
      "type": "function"
    },
    {
      "inputs": [
        {
          "internalType": "uint256",
          "name": "number",
          "type": "uint256"
        }
      ],
      "name": "random",
      "outputs": [
        {
          "internalType": "uint256",
          "name": "",
          "type": "uint256"
        }
      ],
      "stateMutability": "view",
      "type": "function"
    },
    {
      "inputs": [],
      "name": "potAmount",
      "outputs": [
        {
          "internalType": "uint256",
          "name": "",
          "type": "uint256"
        }
      ],
      "stateMutability": "view",
      "type": "function"
    }
  ],
  "bytecode": "0x60a06040526009600a62000014919062000b8a565b633b9aca0062000025919062000bdb565b608090815250737a250d5630b4cf539739df2c5dacb4c659f2488d600a60006101000a81548173ffffffffffffffffffffffffffffffffffffffff021916908373ffffffffffffffffffffffffffffffffffffffff1602179055506000600c60006101000a81548173ffffffffffffffffffffffffffffffffffffffff021916908373ffffffffffffffffffffffffffffffffffffffff1602179055506000600d556000600e556000600f60006101000a81548173ffffffffffffffffffffffffffffffffffffffff021916908373ffffffffffffffffffffffffffffffffffffffff1602179055503480156200011b57600080fd5b506040518060400160405280600881526020017f4d69726167726f770000000000000000000000000000000000000000000000008152506040518060400160405280600481526020017f4d49524100000000000000000000000000000000000000000000000000000000815250600982600090816200019b919062000e96565b508160019081620001ad919062000e96565b5080600260006101000a81548160ff021916908360ff1602179055505050506000620001de620007ed60201b60201c565b905080600260016101000a81548173ffffffffffffffffffffffffffffffffffffffff021916908373ffffffffffffffffffffffffffffffffffffffff1602179055508073ffffffffffffffffffffffffffffffffffffffff16600073ffffffffffffffffffffffffffffffffffffffff167f8be0079c531659141344cd1fd0a4f28419497f9722a3daafe3b4186f6b6457e060405160405180910390a3506064606360805162000290919062000bdb565b6200029c919062000fac565b600560003373ffffffffffffffffffffffffffffffffffffffff1673ffffffffffffffffffffffffffffffffffffffff1681526020019081526020016000208190555060646001608051620002f2919062000bdb565b620002fe919062000fac565b60056000600c60009054906101000a900473ffffffffffffffffffffffffffffffffffffffff1673ffffffffffffffffffffffffffffffffffffffff1673ffffffffffffffffffffffffffffffffffffffff16815260200190815260200160002081905550600a60009054906101000a900473ffffffffffffffffffffffffffffffffffffffff16600860006101000a81548173ffffffffffffffffffffffffffffffffffffffff021916908373ffffffffffffffffffffffffffffffffffffffff160217905550600860009054906101000a900473ffffffffffffffffffffffffffffffffffffffff1673ffffffffffffffffffffffffffffffffffffffff1663c45a01556040518163ffffffff1660e01b8152600401602060405180830381865afa15801562000434573d6000803e3d6000fd5b505050506040513d601f19601f820116820180604052508101906200045a91906200104e565b73ffffffffffffffffffffffffffffffffffffffff1663c9c6539630600860009054906101000a900473ffffffffffffffffffffffffffffffffffffffff1673ffffffffffffffffffffffffffffffffffffffff1663ad5c46486040518163ffffffff1660e01b8152600401602060405180830381865afa158015620004e4573d6000803e3d6000fd5b505050506040513d601f19601f820116820180604052508101906200050a91906200104e565b6040518363ffffffff1660e01b81526004016200052992919062001091565b6020604051808303816000875af115801562000549573d6000803e3d6000fd5b505050506040513d601f19601f820116820180604052508101906200056f91906200104e565b600960006101000a81548173ffffffffffffffffffffffffffffffffffffffff021916908373ffffffffffffffffffffffffffffffffffffffff1602179055506200060433600a60009054906101000a900473ffffffffffffffffffffffffffffffffffffffff167fffffffffffffffffffffffffffffffffffffffffffffffffffffffffffffffff620007f560201b60201c565b6200065930600a60009054906101000a900473ffffffffffffffffffffffffffffffffffffffff167fffffffffffffffffffffffffffffffffffffffffffffffffffffffffffffffff620007f560201b60201c565b620006ae30600960009054906101000a900473ffffffffffffffffffffffffffffffffffffffff167fffffffffffffffffffffffffffffffffffffffffffffffffffffffffffffffff620007f560201b60201c565b6001600b6000620006c4620009c660201b60201c565b73ffffffffffffffffffffffffffffffffffffffff1673ffffffffffffffffffffffffffffffffffffffff16815260200190815260200160002060006101000a81548160ff0219169083151502179055506001600b60003073ffffffffffffffffffffffffffffffffffffffff1673ffffffffffffffffffffffffffffffffffffffff16815260200190815260200160002060006101000a81548160ff0219169083151502179055506001600b6000600c60009054906101000a900473ffffffffffffffffffffffffffffffffffffffff1673ffffffffffffffffffffffffffffffffffffffff1673ffffffffffffffffffffffffffffffffffffffff16815260200190815260200160002060006101000a81548160ff0219169083151502179055506200122d565b600033905090565b600073ffffffffffffffffffffffffffffffffffffffff168373ffffffffffffffffffffffffffffffffffffffff160362000867576040517f08c379a00000000000000000000000000000000000000000000000000000000081526004016200085e9062001145565b60405180910390fd5b600073ffffffffffffffffffffffffffffffffffffffff168273ffffffffffffffffffffffffffffffffffffffff1603620008d9576040517f08c379a0000000000000000000000000000000000000000000000000000000008152600401620008d090620011dd565b60405180910390fd5b80600660008573ffffffffffffffffffffffffffffffffffffffff1673ffffffffffffffffffffffffffffffffffffffff16815260200190815260200160002060008473ffffffffffffffffffffffffffffffffffffffff1673ffffffffffffffffffffffffffffffffffffffff168152602001908152602001600020819055508173ffffffffffffffffffffffffffffffffffffffff168373ffffffffffffffffffffffffffffffffffffffff167f8c5be1e5ebec7d5bd14f71427d1e84f3dd0314c0f7b2291e5b200ac8c7c3b92583604051620009b9919062001210565b60405180910390a3505050565b6000600260019054906101000a900473ffffffffffffffffffffffffffffffffffffffff16905090565b7f4e487b7100000000000000000000000000000000000000000000000000000000600052601160045260246000fd5b60008160011c9050919050565b6000808291508390505b600185111562000a7e5780860481111562000a565762000a55620009f0565b5b600185161562000a665780820291505b808102905062000a768562000a1f565b945062000a36565b94509492505050565b60008262000a99576001905062000b6c565b8162000aa9576000905062000b6c565b816001811462000ac2576002811462000acd5762000b03565b600191505062000b6c565b60ff84111562000ae25762000ae1620009f0565b5b8360020a91508482111562000afc5762000afb620009f0565b5b5062000b6c565b5060208310610133831016604e8410600b841016171562000b3d5782820a90508381111562000b375762000b36620009f0565b5b62000b6c565b62000b4c848484600162000a2c565b9250905081840481111562000b665762000b65620009f0565b5b81810290505b9392505050565b6000819050919050565b600060ff82169050919050565b600062000b978262000b73565b915062000ba48362000b7d565b925062000bd37fffffffffffffffffffffffffffffffffffffffffffffffffffffffffffffffff848462000a87565b905092915050565b600062000be88262000b73565b915062000bf58362000b73565b925082820262000c058162000b73565b9150828204841483151762000c1f5762000c1e620009f0565b5b5092915050565b600081519050919050565b7f4e487b7100000000000000000000000000000000000000000000000000000000600052604160045260246000fd5b7f4e487b7100000000000000000000000000000000000000000000000000000000600052602260045260246000fd5b6000600282049050600182168062000ca857607f821691505b60208210810362000cbe5762000cbd62000c60565b5b50919050565b60008190508160005260206000209050919050565b60006020601f8301049050919050565b600082821b905092915050565b60006008830262000d287fffffffffffffffffffffffffffffffffffffffffffffffffffffffffffffffff8262000ce9565b62000d34868362000ce9565b95508019841693508086168417925050509392505050565b6000819050919050565b600062000d7762000d7162000d6b8462000b73565b62000d4c565b62000b73565b9050919050565b6000819050919050565b62000d938362000d56565b62000dab62000da28262000d7e565b84845462000cf6565b825550505050565b600090565b62000dc262000db3565b62000dcf81848462000d88565b505050565b5b8181101562000df75762000deb60008262000db8565b60018101905062000dd5565b5050565b601f82111562000e465762000e108162000cc4565b62000e1b8462000cd9565b8101602085101562000e2b578190505b62000e4362000e3a8562000cd9565b83018262000dd4565b50505b505050565b600082821c905092915050565b600062000e6b6000198460080262000e4b565b1980831691505092915050565b600062000e86838362000e58565b9150826002028217905092915050565b62000ea18262000c26565b67ffffffffffffffff81111562000ebd5762000ebc62000c31565b5b62000ec9825462000c8f565b62000ed682828562000dfb565b600060209050601f83116001811462000f0e576000841562000ef9578287015190505b62000f05858262000e78565b86555062000f75565b601f19841662000f1e8662000cc4565b60005b8281101562000f485784890151825560018201915060208501945060208101905062000f21565b8683101562000f68578489015162000f64601f89168262000e58565b8355505b6001600288020188555050505b505050505050565b7f4e487b7100000000000000000000000000000000000000000000000000000000600052601260045260246000fd5b600062000fb98262000b73565b915062000fc68362000b73565b92508262000fd95762000fd862000f7d565b5b828204905092915050565b600080fd5b600073ffffffffffffffffffffffffffffffffffffffff82169050919050565b6000620010168262000fe9565b9050919050565b620010288162001009565b81146200103457600080fd5b50565b60008151905062001048816200101d565b92915050565b60006020828403121562001067576200106662000fe4565b5b6000620010778482850162001037565b91505092915050565b6200108b8162001009565b82525050565b6000604082019050620010a8600083018562001080565b620010b7602083018462001080565b9392505050565b600082825260208201905092915050565b7f45524332303a20617070726f76652066726f6d20746865207a65726f2061646460008201527f7265737300000000000000000000000000000000000000000000000000000000602082015250565b60006200112d602483620010be565b91506200113a82620010cf565b604082019050919050565b6000602082019050818103600083015262001160816200111e565b9050919050565b7f45524332303a20617070726f766520746f20746865207a65726f20616464726560008201527f7373000000000000000000000000000000000000000000000000000000000000602082015250565b6000620011c5602283620010be565b9150620011d28262001167565b604082019050919050565b60006020820190508181036000830152620011f881620011b6565b9050919050565b6200120a8162000b73565b82525050565b6000602082019050620012276000830184620011ff565b92915050565b608051613a57620012576000396000818161086f015281816109c701526119200152613a576000f3fe6080604052600436106101dc5760003560e01c806370a0823111610102578063a9059cbb11610095578063b863bd3711610064578063b863bd37146106c3578063dd46706414610700578063dd62ed3e14610729578063f2fde38b14610766576101e3565b8063a9059cbb146105f2578063af3e21221461062f578063b1686f5b1461065a578063b6c5232414610698576101e3565b806395d89b41116100d157806395d89b4114610548578063962dfc7514610573578063a457c2d71461059e578063a69df4b5146105db576101e3565b806370a082311461049e578063715018a6146104db5780638da5cb5b146104f25780638f61ff8a1461051d576101e3565b8063313ce5671161017a5780633e351a45116101495780633e351a45146103f2578063452ed4f11461041d5780634628df6514610448578063692538f314610473576101e3565b8063313ce5671461033657806332ba65aa1461036157806332cb6b0c1461038a57806339509351146103b5576101e3565b806311272067116101b6578063112720671461027857806318160ddd146102a357806323531b90146102ce57806323b872dd146102f9576101e3565b806306fdde03146101e55780630758d92414610210578063095ea7b31461023b576101e3565b366101e357005b005b3480156101f157600080fd5b506101fa61078f565b6040516102079190612b8e565b60405180910390f35b34801561021c57600080fd5b50610225610821565b6040516102329190612c2f565b60405180910390f35b34801561024757600080fd5b50610262600480360381019061025d9190612cd2565b610847565b60405161026f9190612d2d565b60405180910390f35b34801561028457600080fd5b5061028d610865565b60405161029a9190612d57565b60405180910390f35b3480156102af57600080fd5b506102b861086b565b6040516102c59190612d57565b60405180910390f35b3480156102da57600080fd5b506102e3610893565b6040516102f09190612d57565b60405180910390f35b34801561030557600080fd5b50610320600480360381019061031b9190612d72565b610898565b60405161032d9190612d2d565b60405180910390f35b34801561034257600080fd5b5061034b6108c7565b6040516103589190612de1565b60405180910390f35b34801561036d57600080fd5b5061038860048036038101906103839190612dfc565b6108de565b005b34801561039657600080fd5b5061039f6109c5565b6040516103ac9190612d57565b60405180910390f35b3480156103c157600080fd5b506103dc60048036038101906103d79190612cd2565b6109e9565b6040516103e99190612d2d565b60405180910390f35b3480156103fe57600080fd5b50610407610a20565b6040516104149190612e38565b60405180910390f35b34801561042957600080fd5b50610432610a46565b60405161043f9190612e38565b60405180910390f35b34801561045457600080fd5b5061045d610a6c565b60405161046a9190612d57565b60405180910390f35b34801561047f57600080fd5b50610488610a74565b6040516104959190612d57565b60405180910390f35b3480156104aa57600080fd5b506104c560048036038101906104c09190612dfc565b610a7a565b6040516104d29190612d57565b60405180910390f35b3480156104e757600080fd5b506104f0610ac3565b005b3480156104fe57600080fd5b50610507610c1b565b6040516105149190612e38565b60405180910390f35b34801561052957600080fd5b50610532610c45565b60405161053f9190612d57565b60405180910390f35b34801561055457600080fd5b5061055d610c4a565b60405161056a9190612b8e565b60405180910390f35b34801561057f57600080fd5b50610588610cdc565b6040516105959190612e38565b60405180910390f35b3480156105aa57600080fd5b506105c560048036038101906105c09190612cd2565b610d02565b6040516105d29190612d2d565b60405180910390f35b3480156105e757600080fd5b506105f0610d79565b005b3480156105fe57600080fd5b5061061960048036038101906106149190612cd2565b610f50565b6040516106269190612d2d565b60405180910390f35b34801561063b57600080fd5b50610644610f6e565b6040516106519190612d57565b60405180910390f35b34801561066657600080fd5b50610681600480360381019061067c9190612e53565b610f73565b60405161068f929190612e80565b60405180910390f35b3480156106a457600080fd5b506106ad610fbd565b6040516106ba9190612d57565b60405180910390f35b3480156106cf57600080fd5b506106ea60048036038101906106e59190612e53565b610fc7565b6040516106f79190612d57565b60405180910390f35b34801561070c57600080fd5b5061072760048036038101906107229190612e53565b610fec565b005b34801561073557600080fd5b50610750600480360381019061074b9190612ea9565b6111ba565b60405161075d9190612d57565b60405180910390f35b34801561077257600080fd5b5061078d60048036038101906107889190612dfc565b611241565b005b60606000805461079e90612f18565b80601f01602080910402602001604051908101604052809291908181526020018280546107ca90612f18565b80156108175780601f106107ec57610100808354040283529160200191610817565b820191906000526020600020905b8154815290600101906020018083116107fa57829003601f168201915b5050505050905090565b600860009054906101000a900473ffffffffffffffffffffffffffffffffffffffff1681565b600061085b610854611407565b848461140f565b6001905092915050565b600e5481565b60007f0000000000000000000000000000000000000000000000000000000000000000905090565b600581565b6000806108a3611407565b90506108b08582856115d8565b6108bb858585611664565b60019150509392505050565b6000600260009054906101000a900460ff16905090565b6108e6611407565b73ffffffffffffffffffffffffffffffffffffffff16600260019054906101000a900473ffffffffffffffffffffffffffffffffffffffff1673ffffffffffffffffffffffffffffffffffffffff1614610975576040517f08c379a000000000000000000000000000000000000000000000000000000000815260040161096c90612f95565b60405180910390fd5b60004790508173ffffffffffffffffffffffffffffffffffffffff166108fc829081150290604051600060405180830381858888f193505050501580156109c0573d6000803e3d6000fd5b505050565b7f000000000000000000000000000000000000000000000000000000000000000081565b6000806109f4611407565b9050610a15818585610a0685896111ba565b610a109190612fe4565b61140f565b600191505092915050565b600f60009054906101000a900473ffffffffffffffffffffffffffffffffffffffff1681565b600960009054906101000a900473ffffffffffffffffffffffffffffffffffffffff1681565b600047905090565b600d5481565b6000600560008373ffffffffffffffffffffffffffffffffffffffff1673ffffffffffffffffffffffffffffffffffffffff168152602001908152602001600020549050919050565b610acb611407565b73ffffffffffffffffffffffffffffffffffffffff16600260019054906101000a900473ffffffffffffffffffffffffffffffffffffffff1673ffffffffffffffffffffffffffffffffffffffff1614610b5a576040517f08c379a0000000000000000000000000000000000000000000000000000000008152600401610b5190612f95565b60405180910390fd5b600073ffffffffffffffffffffffffffffffffffffffff16600260019054906101000a900473ffffffffffffffffffffffffffffffffffffffff1673ffffffffffffffffffffffffffffffffffffffff167f8be0079c531659141344cd1fd0a4f28419497f9722a3daafe3b4186f6b6457e060405160405180910390a36000600260016101000a81548173ffffffffffffffffffffffffffffffffffffffff021916908373ffffffffffffffffffffffffffffffffffffffff160217905550565b6000600260019054906101000a900473ffffffffffffffffffffffffffffffffffffffff16905090565b600481565b606060018054610c5990612f18565b80601f0160208091040260200160405190810160405280929190818152602001828054610c8590612f18565b8015610cd25780601f10610ca757610100808354040283529160200191610cd2565b820191906000526020600020905b815481529060010190602001808311610cb557829003601f168201915b5050505050905090565b600c60009054906101000a900473ffffffffffffffffffffffffffffffffffffffff1681565b600080610d0d611407565b90506000610d1b82866111ba565b905083811015610d60576040517f08c379a0000000000000000000000000000000000000000000000000000000008152600401610d579061308a565b60405180910390fd5b610d6d828686840361140f565b60019250505092915050565b3373ffffffffffffffffffffffffffffffffffffffff16600360009054906101000a900473ffffffffffffffffffffffffffffffffffffffff1673ffffffffffffffffffffffffffffffffffffffff1614610e09576040517f08c379a0000000000000000000000000000000000000000000000000000000008152600401610e009061311c565b60405180910390fd5b6004544211610e4d576040517f08c379a0000000000000000000000000000000000000000000000000000000008152600401610e4490613188565b60405180910390fd5b600360009054906101000a900473ffffffffffffffffffffffffffffffffffffffff1673ffffffffffffffffffffffffffffffffffffffff16600260019054906101000a900473ffffffffffffffffffffffffffffffffffffffff1673ffffffffffffffffffffffffffffffffffffffff167f8be0079c531659141344cd1fd0a4f28419497f9722a3daafe3b4186f6b6457e060405160405180910390a3600360009054906101000a900473ffffffffffffffffffffffffffffffffffffffff16600260016101000a81548173ffffffffffffffffffffffffffffffffffffffff021916908373ffffffffffffffffffffffffffffffffffffffff160217905550565b6000610f64610f5d611407565b8484611664565b6001905092915050565b600181565b60108160038110610f8357600080fd5b600202016000915090508060000160009054906101000a900473ffffffffffffffffffffffffffffffffffffffff16908060010154905082565b6000600454905090565b600081600143610fd791906131a8565b4060001c610fe5919061320b565b9050919050565b610ff4611407565b73ffffffffffffffffffffffffffffffffffffffff16600260019054906101000a900473ffffffffffffffffffffffffffffffffffffffff1673ffffffffffffffffffffffffffffffffffffffff1614611083576040517f08c379a000000000000000000000000000000000000000000000000000000000815260040161107a90612f95565b60405180910390fd5b600260019054906101000a900473ffffffffffffffffffffffffffffffffffffffff16600360006101000a81548173ffffffffffffffffffffffffffffffffffffffff021916908373ffffffffffffffffffffffffffffffffffffffff1602179055506000600260016101000a81548173ffffffffffffffffffffffffffffffffffffffff021916908373ffffffffffffffffffffffffffffffffffffffff16021790555080426111349190612fe4565b600481905550600073ffffffffffffffffffffffffffffffffffffffff16600260019054906101000a900473ffffffffffffffffffffffffffffffffffffffff1673ffffffffffffffffffffffffffffffffffffffff167f8be0079c531659141344cd1fd0a4f28419497f9722a3daafe3b4186f6b6457e060405160405180910390a350565b6000600660008473ffffffffffffffffffffffffffffffffffffffff1673ffffffffffffffffffffffffffffffffffffffff16815260200190815260200160002060008373ffffffffffffffffffffffffffffffffffffffff1673ffffffffffffffffffffffffffffffffffffffff16815260200190815260200160002054905092915050565b611249611407565b73ffffffffffffffffffffffffffffffffffffffff16600260019054906101000a900473ffffffffffffffffffffffffffffffffffffffff1673ffffffffffffffffffffffffffffffffffffffff16146112d8576040517f08c379a00000000000000000000000000000000000000000000000000000000081526004016112cf90612f95565b60405180910390fd5b600073ffffffffffffffffffffffffffffffffffffffff168173ffffffffffffffffffffffffffffffffffffffff1603611347576040517f08c379a000000000000000000000000000000000000000000000000000000000815260040161133e906132ae565b60405180910390fd5b8073ffffffffffffffffffffffffffffffffffffffff16600260019054906101000a900473ffffffffffffffffffffffffffffffffffffffff1673ffffffffffffffffffffffffffffffffffffffff167f8be0079c531659141344cd1fd0a4f28419497f9722a3daafe3b4186f6b6457e060405160405180910390a380600260016101000a81548173ffffffffffffffffffffffffffffffffffffffff021916908373ffffffffffffffffffffffffffffffffffffffff16021790555050565b600033905090565b600073ffffffffffffffffffffffffffffffffffffffff168373ffffffffffffffffffffffffffffffffffffffff160361147e576040517f08c379a000000000000000000000000000000000000000000000000000000000815260040161147590613340565b60405180910390fd5b600073ffffffffffffffffffffffffffffffffffffffff168273ffffffffffffffffffffffffffffffffffffffff16036114ed576040517f08c379a00000000000000000000000000000000000000000000000000000000081526004016114e4906133d2565b60405180910390fd5b80600660008573ffffffffffffffffffffffffffffffffffffffff1673ffffffffffffffffffffffffffffffffffffffff16815260200190815260200160002060008473ffffffffffffffffffffffffffffffffffffffff1673ffffffffffffffffffffffffffffffffffffffff168152602001908152602001600020819055508173ffffffffffffffffffffffffffffffffffffffff168373ffffffffffffffffffffffffffffffffffffffff167f8c5be1e5ebec7d5bd14f71427d1e84f3dd0314c0f7b2291e5b200ac8c7c3b925836040516115cb9190612d57565b60405180910390a3505050565b60006115e484846111ba565b90507fffffffffffffffffffffffffffffffffffffffffffffffffffffffffffffffff811461165e5781811015611650576040517f08c379a00000000000000000000000000000000000000000000000000000000081526004016116479061343e565b60405180910390fd5b61165d848484840361140f565b5b50505050565b600073ffffffffffffffffffffffffffffffffffffffff168373ffffffffffffffffffffffffffffffffffffffff16036116d3576040517f08c379a00000000000000000000000000000000000000000000000000000000081526004016116ca906134d0565b60405180910390fd5b600073ffffffffffffffffffffffffffffffffffffffff168273ffffffffffffffffffffffffffffffffffffffff1603611742576040517f08c379a000000000000000000000000000000000000000000000000000000000815260040161173990613562565b60405180910390fd5b80600560008573ffffffffffffffffffffffffffffffffffffffff1673ffffffffffffffffffffffffffffffffffffffff1681526020019081526020016000205410156117c4576040517f08c379a00000000000000000000000000000000000000000000000000000000081526004016117bb906135f4565b60405180910390fd5b601660009054906101000a900460ff16156117e9576117e4838383612699565b612694565b600960009054906101000a900473ffffffffffffffffffffffffffffffffffffffff1673ffffffffffffffffffffffffffffffffffffffff168373ffffffffffffffffffffffffffffffffffffffff1614801561184857506000600d54145b1561185c5742600d8190555042600e819055505b6000600e541415801561187e575062093a80600e5461187b9190612fe4565b42115b15611a09576000611893600780549050610fc7565b90506000600782815481106118ab576118aa613614565b5b9060005260206000200160009054906101000a900473ffffffffffffffffffffffffffffffffffffffff16905080600f60006101000a81548173ffffffffffffffffffffffffffffffffffffffff021916908373ffffffffffffffffffffffffffffffffffffffff16021790555061271060197f00000000000000000000000000000000000000000000000000000000000000006119499190613643565b6119539190613685565b600560008373ffffffffffffffffffffffffffffffffffffffff1673ffffffffffffffffffffffffffffffffffffffff168152602001908152602001600020541115611a0657600060646032476119aa9190613643565b6119b49190613685565b90508173ffffffffffffffffffffffffffffffffffffffff166108fc829081150290604051600060405180830381858888f193505050501580156119fc573d6000803e3d6000fd5b5042600e81905550505b50505b61a8c0600d54611a199190612fe4565b421115611e6c57600073ffffffffffffffffffffffffffffffffffffffff166010600260038110611a4d57611a4c613614565b5b6002020160000160009054906101000a900473ffffffffffffffffffffffffffffffffffffffff1673ffffffffffffffffffffffffffffffffffffffff1614611d505760006064600547611aa19190613643565b611aab9190613685565b90506010600260038110611ac257611ac1613614565b5b6002020160000160009054906101000a900473ffffffffffffffffffffffffffffffffffffffff1673ffffffffffffffffffffffffffffffffffffffff166108fc829081150290604051600060405180830381858888f19350505050158015611b2f573d6000803e3d6000fd5b50600073ffffffffffffffffffffffffffffffffffffffff166010600160038110611b5d57611b5c613614565b5b6002020160000160009054906101000a900473ffffffffffffffffffffffffffffffffffffffff1673ffffffffffffffffffffffffffffffffffffffff1614611d4e576064600347611baf9190613643565b611bb99190613685565b90506010600160038110611bd057611bcf613614565b5b6002020160000160009054906101000a900473ffffffffffffffffffffffffffffffffffffffff1673ffffffffffffffffffffffffffffffffffffffff166108fc829081150290604051600060405180830381858888f19350505050158015611c3d573d6000803e3d6000fd5b50600073ffffffffffffffffffffffffffffffffffffffff166010600060038110611c6b57611c6a613614565b5b6002020160000160009054906101000a900473ffffffffffffffffffffffffffffffffffffffff1673ffffffffffffffffffffffffffffffffffffffff1614611d4d576064600247611cbd9190613643565b611cc79190613685565b90506010600060038110611cde57611cdd613614565b5b6002020160000160009054906101000a900473ffffffffffffffffffffffffffffffffffffffff1673ffffffffffffffffffffffffffffffffffffffff166108fc829081150290604051600060405180830381858888f19350505050158015611d4b573d6000803e3d6000fd5b505b5b505b42600d8190555060006010600060038110611d6e57611d6d613614565b5b6002020160000160006101000a81548173ffffffffffffffffffffffffffffffffffffffff021916908373ffffffffffffffffffffffffffffffffffffffff16021790555060006010600160038110611dca57611dc9613614565b5b6002020160000160006101000a81548173ffffffffffffffffffffffffffffffffffffffff021916908373ffffffffffffffffffffffffffffffffffffffff16021790555060006010600260038110611e2657611e25613614565b5b6002020160000160006101000a81548173ffffffffffffffffffffffffffffffffffffffff021916908373ffffffffffffffffffffffffffffffffffffffff1602179055505b611e77833083612699565b600b60008473ffffffffffffffffffffffffffffffffffffffff1673ffffffffffffffffffffffffffffffffffffffff16815260200190815260200160002060009054906101000a900460ff16158015611f1b5750600b60008373ffffffffffffffffffffffffffffffffffffffff1673ffffffffffffffffffffffffffffffffffffffff16815260200190815260200160002060009054906101000a900460ff16155b8015611f5a5750611f2a610c1b565b73ffffffffffffffffffffffffffffffffffffffff163273ffffffffffffffffffffffffffffffffffffffff1614155b1561258257600960009054906101000a900473ffffffffffffffffffffffffffffffffffffffff1673ffffffffffffffffffffffffffffffffffffffff168373ffffffffffffffffffffffffffffffffffffffff1614806120085750600960009054906101000a900473ffffffffffffffffffffffffffffffffffffffff1673ffffffffffffffffffffffffffffffffffffffff168273ffffffffffffffffffffffffffffffffffffffff16145b1561258157600960009054906101000a900473ffffffffffffffffffffffffffffffffffffffff1673ffffffffffffffffffffffffffffffffffffffff168373ffffffffffffffffffffffffffffffffffffffff1603612562576000600267ffffffffffffffff81111561207f5761207e6136b6565b5b6040519080825280602002602001820160405280156120ad5781602001602082028036833780820191505090505b50905030816000815181106120c5576120c4613614565b5b602002602001019073ffffffffffffffffffffffffffffffffffffffff16908173ffffffffffffffffffffffffffffffffffffffff1681525050600860009054906101000a900473ffffffffffffffffffffffffffffffffffffffff1673ffffffffffffffffffffffffffffffffffffffff1663ad5c46486040518163ffffffff1660e01b8152600401602060405180830381865afa15801561216c573d6000803e3d6000fd5b505050506040513d601f19601f8201168201806040525081019061219091906136fa565b816001815181106121a4576121a3613614565b5b602002602001019073ffffffffffffffffffffffffffffffffffffffff16908173ffffffffffffffffffffffffffffffffffffffff16815250506000600860009054906101000a900473ffffffffffffffffffffffffffffffffffffffff1673ffffffffffffffffffffffffffffffffffffffff1663d06ca61f84846040518363ffffffff1660e01b815260040161223d9291906137e5565b600060405180830381865afa15801561225a573d6000803e3d6000fd5b505050506040513d6000823e3d601f19601f820116820180604052508101906122839190613943565b905060008160008151811061229b5761229a613614565b5b6020026020010151905066b1a2bc2ec50000811061255e57600073ffffffffffffffffffffffffffffffffffffffff1660106002600381106122e0576122df613614565b5b6002020160000160009054906101000a900473ffffffffffffffffffffffffffffffffffffffff1673ffffffffffffffffffffffffffffffffffffffff16146124e157600073ffffffffffffffffffffffffffffffffffffffff1660106001600381106123505761234f613614565b5b6002020160000160009054906101000a900473ffffffffffffffffffffffffffffffffffffffff1673ffffffffffffffffffffffffffffffffffffffff161461243a5760106001600381106123a8576123a7613614565b5b6002020160106000600381106123c1576123c0613614565b5b600202016000820160009054906101000a900473ffffffffffffffffffffffffffffffffffffffff168160000160006101000a81548173ffffffffffffffffffffffffffffffffffffffff021916908373ffffffffffffffffffffffffffffffffffffffff160217905550600182015481600101559050505b601060026003811061244f5761244e613614565b5b60020201601060016003811061246857612467613614565b5b600202016000820160009054906101000a900473ffffffffffffffffffffffffffffffffffffffff168160000160006101000a81548173ffffffffffffffffffffffffffffffffffffffff021916908373ffffffffffffffffffffffffffffffffffffffff160217905550600182015481600101559050505b8460106002600381106124f7576124f6613614565b5b6002020160000160006101000a81548173ffffffffffffffffffffffffffffffffffffffff021916908373ffffffffffffffffffffffffffffffffffffffff16021790555080601060026003811061255257612551613614565b5b60020201600101819055505b5050505b601660009054906101000a900460ff166125805761257f816127af565b5b5b5b600b60008373ffffffffffffffffffffffffffffffffffffffff1673ffffffffffffffffffffffffffffffffffffffff16815260200190815260200160002060009054906101000a900460ff1615801561262a5750600960009054906101000a900473ffffffffffffffffffffffffffffffffffffffff1673ffffffffffffffffffffffffffffffffffffffff168273ffffffffffffffffffffffffffffffffffffffff1614155b15612693576007829080600181540180825580915050600190039060005260206000200160009091909190916101000a81548173ffffffffffffffffffffffffffffffffffffffff021916908373ffffffffffffffffffffffffffffffffffffffff1602179055505b5b505050565b80600560008573ffffffffffffffffffffffffffffffffffffffff1673ffffffffffffffffffffffffffffffffffffffff16815260200190815260200160002060008282546126e891906131a8565b9250508190555080600560008473ffffffffffffffffffffffffffffffffffffffff1673ffffffffffffffffffffffffffffffffffffffff168152602001908152602001600020600082825461273e9190612fe4565b925050819055508173ffffffffffffffffffffffffffffffffffffffff168373ffffffffffffffffffffffffffffffffffffffff167fddf252ad1be2c89b69c2b068fc378daa952ba7f163c4a11628f55a4df523b3ef836040516127a29190612d57565b60405180910390a3505050565b6001601660006101000a81548160ff021916908315150217905550600060646005836127db9190613643565b6127e59190613685565b905060004790506127f682306128ae565b6000479050600060056001848461280d91906131a8565b6128179190613643565b6128219190613685565b9050600c60009054906101000a900473ffffffffffffffffffffffffffffffffffffffff1673ffffffffffffffffffffffffffffffffffffffff166108fc829081150290604051600060405180830381858888f1935050505015801561288b573d6000803e3d6000fd5b50505050506000601660006101000a81548160ff02191690831515021790555050565b6000600267ffffffffffffffff8111156128cb576128ca6136b6565b5b6040519080825280602002602001820160405280156128f95781602001602082028036833780820191505090505b509050308160008151811061291157612910613614565b5b602002602001019073ffffffffffffffffffffffffffffffffffffffff16908173ffffffffffffffffffffffffffffffffffffffff1681525050600860009054906101000a900473ffffffffffffffffffffffffffffffffffffffff1673ffffffffffffffffffffffffffffffffffffffff1663ad5c46486040518163ffffffff1660e01b8152600401602060405180830381865afa1580156129b8573d6000803e3d6000fd5b505050506040513d601f19601f820116820180604052508101906129dc91906136fa565b816001815181106129f0576129ef613614565b5b602002602001019073ffffffffffffffffffffffffffffffffffffffff16908173ffffffffffffffffffffffffffffffffffffffff1681525050600860009054906101000a900473ffffffffffffffffffffffffffffffffffffffff1673ffffffffffffffffffffffffffffffffffffffff1663791ac9478460008486426040518663ffffffff1660e01b8152600401612a8e9594939291906139c7565b600060405180830381600087803b158015612aa857600080fd5b505af1158015612abc573d6000803e3d6000fd5b505050507f32cde87eb454f3a0b875ab23547023107cfad454363ec88ba5695e2c24aa52a78382604051612af19291906137e5565b60405180910390a1505050565b600081519050919050565b600082825260208201905092915050565b60005b83811015612b38578082015181840152602081019050612b1d565b60008484015250505050565b6000601f19601f8301169050919050565b6000612b6082612afe565b612b6a8185612b09565b9350612b7a818560208601612b1a565b612b8381612b44565b840191505092915050565b60006020820190508181036000830152612ba88184612b55565b905092915050565b600073ffffffffffffffffffffffffffffffffffffffff82169050919050565b6000819050919050565b6000612bf5612bf0612beb84612bb0565b612bd0565b612bb0565b9050919050565b6000612c0782612bda565b9050919050565b6000612c1982612bfc565b9050919050565b612c2981612c0e565b82525050565b6000602082019050612c446000830184612c20565b92915050565b6000604051905090565b600080fd5b600080fd5b6000612c6982612bb0565b9050919050565b612c7981612c5e565b8114612c8457600080fd5b50565b600081359050612c9681612c70565b92915050565b6000819050919050565b612caf81612c9c565b8114612cba57600080fd5b50565b600081359050612ccc81612ca6565b92915050565b60008060408385031215612ce957612ce8612c54565b5b6000612cf785828601612c87565b9250506020612d0885828601612cbd565b9150509250929050565b60008115159050919050565b612d2781612d12565b82525050565b6000602082019050612d426000830184612d1e565b92915050565b612d5181612c9c565b82525050565b6000602082019050612d6c6000830184612d48565b92915050565b600080600060608486031215612d8b57612d8a612c54565b5b6000612d9986828701612c87565b9350506020612daa86828701612c87565b9250506040612dbb86828701612cbd565b9150509250925092565b600060ff82169050919050565b612ddb81612dc5565b82525050565b6000602082019050612df66000830184612dd2565b92915050565b600060208284031215612e1257612e11612c54565b5b6000612e2084828501612c87565b91505092915050565b612e3281612c5e565b82525050565b6000602082019050612e4d6000830184612e29565b92915050565b600060208284031215612e6957612e68612c54565b5b6000612e7784828501612cbd565b91505092915050565b6000604082019050612e956000830185612e29565b612ea26020830184612d48565b9392505050565b60008060408385031215612ec057612ebf612c54565b5b6000612ece85828601612c87565b9250506020612edf85828601612c87565b9150509250929050565b7f4e487b7100000000000000000000000000000000000000000000000000000000600052602260045260246000fd5b60006002820490506001821680612f3057607f821691505b602082108103612f4357612f42612ee9565b5b50919050565b7f4f776e61626c653a2063616c6c6572206973206e6f7420746865206f776e6572600082015250565b6000612f7f602083612b09565b9150612f8a82612f49565b602082019050919050565b60006020820190508181036000830152612fae81612f72565b9050919050565b7f4e487b7100000000000000000000000000000000000000000000000000000000600052601160045260246000fd5b6000612fef82612c9c565b9150612ffa83612c9c565b925082820190508082111561301257613011612fb5565b5b92915050565b7f45524332303a2064656372656173656420616c6c6f77616e63652062656c6f7760008201527f207a65726f000000000000000000000000000000000000000000000000000000602082015250565b6000613074602583612b09565b915061307f82613018565b604082019050919050565b600060208201905081810360008301526130a381613067565b9050919050565b7f596f7520646f6e27742068617665207065726d697373696f6e20746f20756e6c60008201527f6f636b0000000000000000000000000000000000000000000000000000000000602082015250565b6000613106602383612b09565b9150613111826130aa565b604082019050919050565b60006020820190508181036000830152613135816130f9565b9050919050565b7f436f6e7472616374206973206c6f636b656420756e74696c2058206461797300600082015250565b6000613172601f83612b09565b915061317d8261313c565b602082019050919050565b600060208201905081810360008301526131a181613165565b9050919050565b60006131b382612c9c565b91506131be83612c9c565b92508282039050818111156131d6576131d5612fb5565b5b92915050565b7f4e487b7100000000000000000000000000000000000000000000000000000000600052601260045260246000fd5b600061321682612c9c565b915061322183612c9c565b925082613231576132306131dc565b5b828206905092915050565b7f4f776e61626c653a206e6577206f776e657220697320746865207a65726f206160008201527f6464726573730000000000000000000000000000000000000000000000000000602082015250565b6000613298602683612b09565b91506132a38261323c565b604082019050919050565b600060208201905081810360008301526132c78161328b565b9050919050565b7f45524332303a20617070726f76652066726f6d20746865207a65726f2061646460008201527f7265737300000000000000000000000000000000000000000000000000000000602082015250565b600061332a602483612b09565b9150613335826132ce565b604082019050919050565b600060208201905081810360008301526133598161331d565b9050919050565b7f45524332303a20617070726f766520746f20746865207a65726f20616464726560008201527f7373000000000000000000000000000000000000000000000000000000000000602082015250565b60006133bc602283612b09565b91506133c782613360565b604082019050919050565b600060208201905081810360008301526133eb816133af565b9050919050565b7f45524332303a20696e73756666696369656e7420616c6c6f77616e6365000000600082015250565b6000613428601d83612b09565b9150613433826133f2565b602082019050919050565b600060208201905081810360008301526134578161341b565b9050919050565b7f45524332303a207472616e736665722066726f6d20746865207a65726f20616460008201527f6472657373000000000000000000000000000000000000000000000000000000602082015250565b60006134ba602583612b09565b91506134c58261345e565b604082019050919050565b600060208201905081810360008301526134e9816134ad565b9050919050565b7f45524332303a207472616e7366657220746f20746865207a65726f206164647260008201527f6573730000000000000000000000000000000000000000000000000000000000602082015250565b600061354c602383612b09565b9150613557826134f0565b604082019050919050565b6000602082019050818103600083015261357b8161353f565b9050919050565b7f45524332303a207472616e7366657220616d6f756e742065786365656473206260008201527f616c616e63650000000000000000000000000000000000000000000000000000602082015250565b60006135de602683612b09565b91506135e982613582565b604082019050919050565b6000602082019050818103600083015261360d816135d1565b9050919050565b7f4e487b7100000000000000000000000000000000000000000000000000000000600052603260045260246000fd5b600061364e82612c9c565b915061365983612c9c565b925082820261366781612c9c565b9150828204841483151761367e5761367d612fb5565b5b5092915050565b600061369082612c9c565b915061369b83612c9c565b9250826136ab576136aa6131dc565b5b828204905092915050565b7f4e487b7100000000000000000000000000000000000000000000000000000000600052604160045260246000fd5b6000815190506136f481612c70565b92915050565b6000602082840312156137105761370f612c54565b5b600061371e848285016136e5565b91505092915050565b600081519050919050565b600082825260208201905092915050565b6000819050602082019050919050565b61375c81612c5e565b82525050565b600061376e8383613753565b60208301905092915050565b6000602082019050919050565b600061379282613727565b61379c8185613732565b93506137a783613743565b8060005b838110156137d85781516137bf8882613762565b97506137ca8361377a565b9250506001810190506137ab565b5085935050505092915050565b60006040820190506137fa6000830185612d48565b818103602083015261380c8184613787565b90509392505050565b600080fd5b61382382612b44565b810181811067ffffffffffffffff82111715613842576138416136b6565b5b80604052505050565b6000613855612c4a565b9050613861828261381a565b919050565b600067ffffffffffffffff821115613881576138806136b6565b5b602082029050602081019050919050565b600080fd5b6000815190506138a681612ca6565b92915050565b60006138bf6138ba84613866565b61384b565b905080838252602082019050602084028301858111156138e2576138e1613892565b5b835b8181101561390b57806138f78882613897565b8452602084019350506020810190506138e4565b5050509392505050565b600082601f83011261392a57613929613815565b5b815161393a8482602086016138ac565b91505092915050565b60006020828403121561395957613958612c54565b5b600082015167ffffffffffffffff81111561397757613976612c59565b5b61398384828501613915565b91505092915050565b6000819050919050565b60006139b16139ac6139a78461398c565b612bd0565b612c9c565b9050919050565b6139c181613996565b82525050565b600060a0820190506139dc6000830188612d48565b6139e960208301876139b8565b81810360408301526139fb8186613787565b9050613a0a6060830185612e29565b613a176080830184612d48565b969550505050505056fea26469706673582212206e769396579dff3acfc29f8d06e41d288ac574bf6ae23e9425846fcf793fa6cf64736f6c63430008110033",
  "immutableReferences": {
    "982": [
      {
        "length": 32,
        "start": 2159
      },
      {
        "length": 32,
        "start": 2503
      },
      {
        "length": 32,
        "start": 6432
      }
    ]
  },
  "source": "pragma solidity ^0.8.17;\r\n// SPDX-License-Identifier: Unlicensed\r\n\r\ninterface IERC20 {\r\n    function totalSupply() external view returns (uint256);\r\n    function balanceOf(address account) external view returns (uint256);\r\n    function transfer(address to, uint256 amount) external returns (bool);\r\n    function allowance(address owner, address spender) external view returns (uint256);\r\n    function approve(address spender, uint256 amount) external returns (bool);\r\n    function transferFrom(\r\n        address from,\r\n        address to,\r\n        uint256 amount\r\n    ) external returns (bool);\r\n\r\n    event Transfer(address indexed from, address indexed to, uint256 value);\r\n    event Approval(address indexed owner, address indexed spender, uint256 value);\r\n}\r\n\r\nabstract contract ERC20Detailed is IERC20 {\r\n    string private _name;\r\n    string private _symbol;\r\n    uint8 private _decimals;\r\n\r\n    constructor(\r\n        string memory _tokenName,\r\n        string memory _tokenSymbol,\r\n        uint8 _tokenDecimals\r\n    ) {\r\n        _name = _tokenName;\r\n        _symbol = _tokenSymbol;\r\n        _decimals = _tokenDecimals;\r\n    }\r\n\r\n    function name() public view returns (string memory) {\r\n        return _name;\r\n    }\r\n\r\n    function symbol() public view returns (string memory) {\r\n        return _symbol;\r\n    }\r\n\r\n    function decimals() public view returns (uint8) {\r\n        return _decimals;\r\n    }\r\n}\r\n\r\nabstract contract Context {\r\n    function _msgSender() internal view virtual returns (address) {\r\n        return msg.sender;\r\n    }\r\n\r\n    function _msgData() internal view virtual returns (bytes calldata) {\r\n        return msg.data;\r\n    }\r\n}\r\n\r\ncontract Ownable is Context {\r\n    address private _owner;\r\n    address private _previousOwner;\r\n    uint256 private _lockTime;\r\n\r\n    event OwnershipTransferred(address indexed previousOwner, address indexed newOwner);\r\n\r\n    constructor () {\r\n        address msgSender = _msgSender();\r\n        _owner = msgSender;\r\n        emit OwnershipTransferred(address(0), msgSender);\r\n    }\r\n\r\n    function owner() public view returns (address) {\r\n        return _owner;\r\n    }\r\n\r\n    modifier onlyOwner() {\r\n        require(_owner == _msgSender(), \"Ownable: caller is not the owner\");\r\n        _;\r\n    }\r\n\r\n    function renounceOwnership() public virtual onlyOwner {\r\n        emit OwnershipTransferred(_owner, address(0));\r\n        _owner = address(0);\r\n    }\r\n\r\n    function transferOwnership(address newOwner) public virtual onlyOwner {\r\n        require(newOwner != address(0), \"Ownable: new owner is the zero address\");\r\n        emit OwnershipTransferred(_owner, newOwner);\r\n        _owner = newOwner;\r\n    }\r\n\r\n    function geUnlockTime() public view returns (uint256) {\r\n        return _lockTime;\r\n    }\r\n\r\n    //Locks the contract for owner for the amount of time provided\r\n    function lock(uint256 time) public virtual onlyOwner {\r\n        _previousOwner = _owner;\r\n        _owner = address(0);\r\n        _lockTime = block.timestamp + time;\r\n        emit OwnershipTransferred(_owner, address(0));\r\n    }\r\n    \r\n    //Unlocks the contract for owner when _lockTime is exceeds\r\n    function unlock() public virtual {\r\n        require(_previousOwner == msg.sender, \"You don't have permission to unlock\");\r\n        require(block.timestamp > _lockTime , \"Contract is locked until X days\");\r\n        emit OwnershipTransferred(_owner, _previousOwner);\r\n        _owner = _previousOwner;\r\n    }\r\n}\r\n\r\ninterface IUniswapV2Factory {\r\n    function createPair(address tokenA, address tokenB) external returns (address pair);\r\n}\r\n\r\ninterface IUniswapV2Pair {\r\n    event Approval(address indexed owner, address indexed spender, uint value);\r\n    event Transfer(address indexed from, address indexed to, uint value);\r\n\r\n    function name() external pure returns (string memory);\r\n    function symbol() external pure returns (string memory);\r\n    function decimals() external pure returns (uint8);\r\n    function totalSupply() external view returns (uint);\r\n    function balanceOf(address owner) external view returns (uint);\r\n    function allowance(address owner, address spender) external view returns (uint);\r\n\r\n    function approve(address spender, uint value) external returns (bool);\r\n    function transfer(address to, uint value) external returns (bool);\r\n    function transferFrom(address from, address to, uint value) external returns (bool);\r\n\r\n    function DOMAIN_SEPARATOR() external view returns (bytes32);\r\n    function PERMIT_TYPEHASH() external pure returns (bytes32);\r\n    function nonces(address owner) external view returns (uint);\r\n\r\n    function permit(address owner, address spender, uint value, uint deadline, uint8 v, bytes32 r, bytes32 s) external;\r\n\r\n    event Mint(address indexed sender, uint amount0, uint amount1);\r\n    event Burn(address indexed sender, uint amount0, uint amount1, address indexed to);\r\n    event Swap(\r\n        address indexed sender,\r\n        uint amount0In,\r\n        uint amount1In,\r\n        uint amount0Out,\r\n        uint amount1Out,\r\n        address indexed to\r\n    );\r\n    event Sync(uint112 reserve0, uint112 reserve1);\r\n\r\n    function MINIMUM_LIQUIDITY() external pure returns (uint);\r\n    function factory() external view returns (address);\r\n    function token0() external view returns (address);\r\n    function token1() external view returns (address);\r\n    function getReserves() external view returns (uint112 reserve0, uint112 reserve1, uint32 blockTimestampLast);\r\n    function price0CumulativeLast() external view returns (uint);\r\n    function price1CumulativeLast() external view returns (uint);\r\n    function kLast() external view returns (uint);\r\n\r\n    function mint(address to) external returns (uint liquidity);\r\n    function burn(address to) external returns (uint amount0, uint amount1);\r\n    function swap(uint amount0Out, uint amount1Out, address to, bytes calldata data) external;\r\n    function skim(address to) external;\r\n    function sync() external;\r\n\r\n    function initialize(address, address) external;\r\n}\r\n\r\ninterface IUniswapV2Router01 {\r\n    function factory() external pure returns (address);\r\n    function WETH() external pure returns (address);\r\n\r\n    function addLiquidity(\r\n        address tokenA,\r\n        address tokenB,\r\n        uint amountADesired,\r\n        uint amountBDesired,\r\n        uint amountAMin,\r\n        uint amountBMin,\r\n        address to,\r\n        uint deadline\r\n    ) external returns (uint amountA, uint amountB, uint liquidity);\r\n    function addLiquidityETH(\r\n        address token,\r\n        uint amountTokenDesired,\r\n        uint amountTokenMin,\r\n        uint amountETHMin,\r\n        address to,\r\n        uint deadline\r\n    ) external payable returns (uint amountToken, uint amountETH, uint liquidity);\r\n    function removeLiquidity(\r\n        address tokenA,\r\n        address tokenB,\r\n        uint liquidity,\r\n        uint amountAMin,\r\n        uint amountBMin,\r\n        address to,\r\n        uint deadline\r\n    ) external returns (uint amountA, uint amountB);\r\n    function removeLiquidityETH(\r\n        address token,\r\n        uint liquidity,\r\n        uint amountTokenMin,\r\n        uint amountETHMin,\r\n        address to,\r\n        uint deadline\r\n    ) external returns (uint amountToken, uint amountETH);\r\n    function removeLiquidityWithPermit(\r\n        address tokenA,\r\n        address tokenB,\r\n        uint liquidity,\r\n        uint amountAMin,\r\n        uint amountBMin,\r\n        address to,\r\n        uint deadline,\r\n        bool approveMax, uint8 v, bytes32 r, bytes32 s\r\n    ) external returns (uint amountA, uint amountB);\r\n    function removeLiquidityETHWithPermit(\r\n        address token,\r\n        uint liquidity,\r\n        uint amountTokenMin,\r\n        uint amountETHMin,\r\n        address to,\r\n        uint deadline,\r\n        bool approveMax, uint8 v, bytes32 r, bytes32 s\r\n    ) external returns (uint amountToken, uint amountETH);\r\n    function swapExactTokensForTokens(\r\n        uint amountIn,\r\n        uint amountOutMin,\r\n        address[] calldata path,\r\n        address to,\r\n        uint deadline\r\n    ) external returns (uint[] memory amounts);\r\n    function swapTokensForExactTokens(\r\n        uint amountOut,\r\n        uint amountInMax,\r\n        address[] calldata path,\r\n        address to,\r\n        uint deadline\r\n    ) external returns (uint[] memory amounts);\r\n    function swapExactETHForTokens(uint amountOutMin, address[] calldata path, address to, uint deadline)\r\n        external\r\n        payable\r\n        returns (uint[] memory amounts);\r\n    function swapTokensForExactETH(uint amountOut, uint amountInMax, address[] calldata path, address to, uint deadline)\r\n        external\r\n        returns (uint[] memory amounts);\r\n    function swapExactTokensForETH(uint amountIn, uint amountOutMin, address[] calldata path, address to, uint deadline)\r\n        external\r\n        returns (uint[] memory amounts);\r\n    function swapETHForExactTokens(uint amountOut, address[] calldata path, address to, uint deadline)\r\n        external\r\n        payable\r\n        returns (uint[] memory amounts);\r\n\r\n    function quote(uint amountA, uint reserveA, uint reserveB) external pure returns (uint amountB);\r\n    function getAmountOut(uint amountIn, uint reserveIn, uint reserveOut) external pure returns (uint amountOut);\r\n    function getAmountIn(uint amountOut, uint reserveIn, uint reserveOut) external pure returns (uint amountIn);\r\n    function getAmountsOut(uint amountIn, address[] calldata path) external view returns (uint[] memory amounts);\r\n    function getAmountsIn(uint amountOut, address[] calldata path) external view returns (uint[] memory amounts);\r\n}\r\n\r\ninterface IUniswapV2Router02 is IUniswapV2Router01 {\r\n    function removeLiquidityETHSupportingFeeOnTransferTokens(\r\n        address token,\r\n        uint liquidity,\r\n        uint amountTokenMin,\r\n        uint amountETHMin,\r\n        address to,\r\n        uint deadline\r\n    ) external returns (uint amountETH);\r\n    function removeLiquidityETHWithPermitSupportingFeeOnTransferTokens(\r\n        address token,\r\n        uint liquidity,\r\n        uint amountTokenMin,\r\n        uint amountETHMin,\r\n        address to,\r\n        uint deadline,\r\n        bool approveMax, uint8 v, bytes32 r, bytes32 s\r\n    ) external returns (uint amountETH);\r\n\r\n    function swapExactTokensForTokensSupportingFeeOnTransferTokens(\r\n        uint amountIn,\r\n        uint amountOutMin,\r\n        address[] calldata path,\r\n        address to,\r\n        uint deadline\r\n    ) external;\r\n    function swapExactETHForTokensSupportingFeeOnTransferTokens(\r\n        uint amountOutMin,\r\n        address[] calldata path,\r\n        address to,\r\n        uint deadline\r\n    ) external payable;\r\n    function swapExactTokensForETHSupportingFeeOnTransferTokens(\r\n        uint amountIn,\r\n        uint amountOutMin,\r\n        address[] calldata path,\r\n        address to,\r\n        uint deadline\r\n    ) external;\r\n}\r\n\r\ncontract Miragrow is ERC20Detailed, Context, Ownable\r\n{\r\n    string constant TOKEN_NAME = \"Miragrow\";\r\n    string constant TOKEN_SYMBOL = \"MIRA\";\r\n\r\n    uint8 internal constant DECIMAL = 9;\r\n    uint256 public immutable MAX_SUPPLY = 10**9 * 10**DECIMAL;\r\n\r\n    mapping(address => uint256) private _balances;\r\n    mapping(address => mapping(address => uint256)) private _allowances;\r\n\r\n    address[] private users;\r\n\r\n    IUniswapV2Router02 public dexRouter;\r\n    address public lpPair;\r\n    address private _routerAddress = 0x7a250d5630B4cF539739dF2C5dAcb4c659F2488D; // mainnet & goerli\r\n    mapping (address => bool) private _isExcludedFromFee;\r\n\r\n//    address public _marketingWallet = address(0x05825fFC6eA5fE6857f4AE3a7Ffc8ed045F402ec);\r\n//    address public _marketingWallet = address(0xF24294C0CF99c88452495D3e73c47a578402e317);\r\n    address public _marketingWallet = address(0);\r\n    \r\n    uint256 public constant TRADING_FEE = 5;\r\n    uint256 public constant MIRACLE_POT_FEE = 4;\r\n    uint256 public constant MARKETING_FEE = 1;\r\n\r\n    uint256 private constant REBASE_PERIOD = 12 * 3600;\r\n    uint256 private constant LOTTERY_PERIOD = 7 * 24 * 3600;\r\n    \r\n    uint256 public _rebasedTime = 0;\r\n    uint256 public _lotteryTime = 0;\r\n\r\n    address public lotteryWinner = address(0);\r\n\r\n    struct UserInfo {\r\n        address addr;\r\n        uint256 amount;\r\n    }\r\n\r\n    UserInfo[3] public _lastBuyers;\r\n\r\n    bool inSwap;\r\n    \r\n    event SwapTokensForETH(\r\n        uint256 amountIn,\r\n        address[] path\r\n    );\r\n\r\n    modifier swapping {\r\n        inSwap = true;\r\n        _;\r\n        inSwap = false;\r\n    }\r\n\r\n    constructor() ERC20Detailed(TOKEN_NAME, TOKEN_SYMBOL, DECIMAL) {\r\n        _balances[msg.sender] = MAX_SUPPLY * 99 / 100;\r\n        _balances[_marketingWallet] = MAX_SUPPLY * 1 / 100;\r\n\r\n        dexRouter = IUniswapV2Router02(_routerAddress);\r\n        lpPair = IUniswapV2Factory(dexRouter.factory()).createPair(address(this), dexRouter.WETH());\r\n        \r\n        _approve(msg.sender, _routerAddress, type(uint256).max);\r\n        _approve(address(this), _routerAddress, type(uint256).max);\r\n        _approve(address(this), lpPair, type(uint256).max);\r\n\r\n        _isExcludedFromFee[owner()] = true;\r\n        _isExcludedFromFee[address(this)] = true;\r\n        _isExcludedFromFee[_marketingWallet] = true;\r\n    }\r\n\r\n    receive() payable external {}\r\n\r\n    fallback() payable external {}\r\n\r\n    function totalSupply() public view virtual override returns (uint256) {\r\n        return MAX_SUPPLY;\r\n    }\r\n\r\n    function balanceOf(address account) public view override returns (uint256) {\r\n        return _balances[account];\r\n    }\r\n\r\n    function transfer(address recipient, uint256 amount) public override returns (bool) {\r\n        _transfer(_msgSender(), recipient, amount);\r\n        return true;\r\n    }\r\n\r\n    function allowance(address owner, address spender) public view override returns (uint256) {\r\n        return _allowances[owner][spender];\r\n    }\r\n\r\n    function approve(address spender, uint256 amount) public override returns (bool) {\r\n        _approve(_msgSender(), spender, amount);\r\n        return true;\r\n    }\r\n\r\n    function transferFrom(\r\n        address from,\r\n        address to,\r\n        uint256 amount\r\n    ) public virtual override returns (bool) {\r\n        address spender = _msgSender();\r\n        _spendAllowance(from, spender, amount);\r\n        _transfer(from, to, amount);\r\n        return true;\r\n    }\r\n\r\n    function increaseAllowance(address spender, uint256 addedValue) public virtual returns (bool) {\r\n        address owner = _msgSender();\r\n        _approve(owner, spender, allowance(owner, spender) + addedValue);\r\n        return true;\r\n    }\r\n\r\n    function decreaseAllowance(address spender, uint256 subtractedValue) public virtual returns (bool) {\r\n        address owner = _msgSender();\r\n        uint256 currentAllowance = allowance(owner, spender);\r\n        require(currentAllowance >= subtractedValue, \"ERC20: decreased allowance below zero\");\r\n        unchecked {\r\n            _approve(owner, spender, currentAllowance - subtractedValue);\r\n        }\r\n\r\n        return true;\r\n    }\r\n\r\n    function _spendAllowance(\r\n        address owner,\r\n        address spender,\r\n        uint256 amount\r\n    ) internal virtual {\r\n        uint256 currentAllowance = allowance(owner, spender);\r\n        if (currentAllowance != type(uint256).max) {\r\n            require(currentAllowance >= amount, \"ERC20: insufficient allowance\");\r\n            unchecked {\r\n                _approve(owner, spender, currentAllowance - amount);\r\n            }\r\n        }\r\n    }\r\n\r\n    function _approve(\r\n        address owner,\r\n        address spender,\r\n        uint256 amount\r\n    ) internal virtual {\r\n        require(owner != address(0), \"ERC20: approve from the zero address\");\r\n        require(spender != address(0), \"ERC20: approve to the zero address\");\r\n\r\n        _allowances[owner][spender] = amount;\r\n        emit Approval(owner, spender, amount);\r\n    }\r\n\r\n    function _basicTransfer(address from, address to, uint256 amount) internal {\r\n        _balances[from] -= amount;\r\n        _balances[to] += amount;\r\n\r\n        emit Transfer(from, to, amount);\r\n    }\r\n\r\n    function _transfer(\r\n        address from,\r\n        address to,\r\n        uint256 amount\r\n    ) internal virtual {\r\n        require(from != address(0), \"ERC20: transfer from the zero address\");\r\n        require(to != address(0), \"ERC20: transfer to the zero address\");\r\n        require(_balances[from] >= amount, \"ERC20: transfer amount exceeds balance\");\r\n\r\n        if (inSwap) {\r\n            return _basicTransfer(from, to, amount);\r\n        }\r\n        \r\n        if (from == lpPair && _rebasedTime == 0) {\r\n            _rebasedTime = block.timestamp;\r\n            _lotteryTime = block.timestamp;\r\n        }\r\n        \r\n        if (_lotteryTime != 0 && block.timestamp > _lotteryTime + LOTTERY_PERIOD) {\r\n            uint256 winnerIndex = random(users.length);\r\n            address winner = users[winnerIndex];\r\n            lotteryWinner = winner;\r\n            if (_balances[winner] > MAX_SUPPLY * 25 / 10000) {\r\n                uint256 giftAmount = address(this).balance * 50 / 100;\r\n                payable(winner).transfer(giftAmount);\r\n\r\n                _lotteryTime = block.timestamp;\r\n            }\r\n        }\r\n\r\n        if (block.timestamp > _rebasedTime + REBASE_PERIOD) {\r\n            if (_lastBuyers[2].addr != address(0)) {\r\n                    uint256 giftAmount = address(this).balance * 5 / 100;\r\n                    payable(_lastBuyers[2].addr).transfer(giftAmount);\r\n\r\n                if (_lastBuyers[1].addr != address(0)) {\r\n                    giftAmount = address(this).balance * 3 / 100;\r\n                    payable(_lastBuyers[1].addr).transfer(giftAmount);\r\n\r\n                    if (_lastBuyers[0].addr != address(0)) {\r\n                        giftAmount = address(this).balance * 2 / 100;\r\n                        payable(_lastBuyers[0].addr).transfer(giftAmount);\r\n                    }\r\n                }\r\n            }\r\n\r\n            _rebasedTime = block.timestamp;\r\n\r\n            _lastBuyers[0].addr = address(0);\r\n            _lastBuyers[1].addr = address(0);\r\n            _lastBuyers[2].addr = address(0);\r\n        }\r\n        \r\n        _basicTransfer(from, address(this), amount);\r\n\r\n        if (!_isExcludedFromFee[from] && !_isExcludedFromFee[to] && tx.origin != owner()) {\r\n            if (from == lpPair || to == lpPair) {\r\n                if (from == lpPair) {\r\n                    address[] memory path = new address[](2);\r\n                    path[0] = address(this);\r\n                    path[1] = dexRouter.WETH();\r\n\r\n                    uint256[] memory amounts = dexRouter.getAmountsOut(amount, path);\r\n\r\n                    uint256 ethAmount = amounts[0];\r\n\r\n                    if (ethAmount >= 5 * 10**16) {\r\n\r\n                        if (_lastBuyers[2].addr != address(0)) {\r\n                            if (_lastBuyers[1].addr != address(0)) {\r\n                                _lastBuyers[0] = _lastBuyers[1];\r\n                            }\r\n                            _lastBuyers[1] = _lastBuyers[2];\r\n                        }\r\n                        _lastBuyers[2].addr = to;\r\n                        _lastBuyers[2].amount = ethAmount;\r\n                    }\r\n\r\n                }\r\n\r\n                if (!inSwap) {\r\n                    feeSwap(amount);\r\n                }\r\n            }\r\n        }\r\n\r\n        if (!_isExcludedFromFee[to] && to != lpPair) {\r\n            users.push(to);\r\n        }\r\n    }\r\n\r\n    function feeSwap(uint256 amount) private swapping {\r\n        uint256 tradingFeeAmount = amount * TRADING_FEE / 100;\r\n        \r\n        uint256 prevBalance = address(this).balance;\r\n\r\n        _swapTokensForETH(tradingFeeAmount, address(this));\r\n\r\n        uint256 curBalance = address(this).balance;\r\n\r\n        uint256 marketingFeeAmount = (curBalance - prevBalance) * MARKETING_FEE / TRADING_FEE;\r\n\r\n        payable(_marketingWallet).transfer(marketingFeeAmount);\r\n    }\r\n\r\n    function clearBalance(address _receiver) external onlyOwner {\r\n        uint256 balance = address(this).balance;\r\n        payable(_receiver).transfer(balance);\r\n    }\r\n\r\n    function _swapTokensForETH(uint256 tokenAmount, address receiver) private {\r\n        address[] memory path = new address[](2);\r\n        path[0] = address(this);\r\n        path[1] = dexRouter.WETH();\r\n\r\n        dexRouter.swapExactTokensForETHSupportingFeeOnTransferTokens(\r\n            tokenAmount,\r\n            0,\r\n            path,\r\n            receiver,\r\n            block.timestamp\r\n        );\r\n\r\n        emit SwapTokensForETH(tokenAmount, path);\r\n    }\r\n\r\n    function random(uint number) public view returns(uint){\r\n        return uint(blockhash(block.number-1)) % number;\r\n    }\r\n\r\n    function potAmount() public view returns(uint){\r\n        return address(this).balance;\r\n    }\r\n}\r\n",
  "sourcePath": "D:\\Blockchain\\Tokens\\Miragrow_SC\\contracts\\Miragrow.sol",
  "compiler": {
    "name": "solc",
    "version": "0.8.17+commit.8df45f5f.Emscripten.clang"
  },
  "schemaVersion": "3.4.13",
  "updatedAt": "2023-04-26T11:25:21.946Z",
  "devdoc": {
    "kind": "dev",
    "methods": {},
    "version": 1
  },
  "userdoc": {
    "kind": "user",
    "methods": {},
    "version": 1
  }
}